DEMXATTCHMNT DC@DEMOLIBFFD0000000001XATTCHGUI 00001AC        3200000    
DEMXATTCHMNT DC@DEMOLIBFFD0000000002XATTCHOTP 00000AC        3200000    
DEMXATTCHMNT DC@DEMOLIBFFD0000000003XATTCHOKY 000009C       25600000    
DEMXATTCHMNT DC@DEMOLIBFFD0000000004XATTCHFNM 000009C       51200000    
DEMXATTCHMNT DC@DEMOLIBFFD0000000005XATTCHSIZ 00000IC         400000    
DEMXATTCHMNT DC@DEMOLIBFFD0000000006XATTCHBLO 000004C        -100000              S
DEMXATTCHMNT DC@DEMOLIBFFD0000000007XATTCHMIM 000008C        2400000    
DEMXATTCHMNT DC@DEMOLIBFFD0000000008XATTCHCRT 00000ZC        2600000    
DEMXATTCHMNT DC@DEMOLIBFFD0000000009XATTCHCBY 00000AC        3200000    
DEMXATTCHMNT DC@DEMOLIBFFD0000000010XATTCHUPD 00000ZC        2600000    
DEMXATTCHMNT DC@DEMOLIBFFD0000000011XATTCHUPB 00000AC        3200000    
DEMXCONTACTS DC@DEMOLIBFFD0000000001XCONID    00001IC         400000               Y
DEMXCONTACTS DC@DEMOLIBFFD0000000002XCONTACTT 000008C        4000000    
DEMXCONTACTS DC@DEMOLIBFFD0000000003XCONLAME  000009C        5000000    
DEMXCONTACTS DC@DEMOLIBFFD0000000004XCONFNAME 000009C        5000000    
DEMXCONTACTS DC@DEMOLIBFFD0000000005XCONTACTG 00000AC        1500000    
DEMXCONTACTS DC@DEMOLIBFFD0000000006XCONEMAIL 000009C       20000000    
DEMXCONTACTS DC@DEMOLIBFFD0000000007XCONPHMOB 00000HC        1500000    
DEMXCONTACTS DC@DEMOLIBFFD0000000008XCONPHHME 00000HC        1500000    
DEMXCONTACTS DC@DEMOLIBFFD0000000009XCONPHFAX 00000HC        1500000    
DEMXCONTACTS DC@DEMOLIBFFD0000000010XCONPHBUS 00000HC        1500000    
DEMXCONTACTS DC@DEMOLIBFFD0000000011XCONNOTES 000009C      200000000    
DEMXCONTACTS DC@DEMOLIBFFD0000000012XCONIMAGE 000009C       25500000    
DEMXCONTACTS DC@DEMOLIBFFD0000000013XCONINTRS 000009C       20000000    
DEMXCONTACTS DC@DEMOLIBFFD0000000014XCONDOB   00000EC        1000000    
DEMXCONTACTS DC@DEMOLIBFFD0000000015XCONHMETN 000009C        5000000    
DEMXCONTACTS DC@DEMOLIBFFD0000000016XCONCITY  000009C        5000000    
DEMXCONTACTS DC@DEMOLIBFFD0000000017XCONJOBTL 000009C        5000000    
DEMXCONTACTS DC@DEMOLIBFFD0000000018XCONCMPY  000009C        5000000    
DEMXCONTACTS DC@DEMOLIBFFD0000000019XCONADDR  000009C       20000000    
DEMXCONTACTS DC@DEMOLIBFFD0000000020XCONWSITE 000009C       50000000    
DEMXCONTACTS DC@DEMOLIBVFD0000000021XCONFNAM  000009C       21000000    
DEMXCONTACTS DC@DEMOLIBVFD0000000022XCONFADD  000009C       26000000    
DEMXNOTES    DC@DEMOLIBFFD0000000001XNOTEGUID 00001AC        3200000    
DEMXNOTES    DC@DEMOLIBFFD0000000002XNOTETYPE 00000AC        3200000    
DEMXNOTES    DC@DEMOLIBFFD0000000003XNOTEKEY  000009C       25600000    
DEMXNOTES    DC@DEMOLIBFFD0000000004XNOTESUBJ 000009C       51200000    
DEMXNOTES    DC@DEMOLIBFFD0000000005XNOTEHTML 000009C     6553500000    
DEMXNOTES    DC@DEMOLIBFFD0000000006XNOTEJSON 000009C     6553500000    
DEMXNOTES    DC@DEMOLIBFFD0000000007XNOTECRT  00000ZC        2600000    
DEMXNOTES    DC@DEMOLIBFFD0000000008XNOTECRTB 00000AC        3200000    
DEMXNOTES    DC@DEMOLIBFFD0000000009XNOTEUPD  00000ZC        2600000    
DEMXNOTES    DC@DEMOLIBFFD0000000010XNOTEUPDB 00000AC        3200000    
